{
  "abi": [
    {
      "type": "constructor",
      "inputs": [
        {
          "name": "name",
          "type": "string",
          "internalType": "string"
        },
        {
          "name": "symbol",
          "type": "string",
          "internalType": "string"
        },
        {
          "name": "initialSupply",
          "type": "uint256",
          "internalType": "uint256"
        }
      ],
      "stateMutability": "nonpayable"
    },
    {
      "type": "function",
      "name": "addWhitelistedSpender",
      "inputs": [
        {
          "name": "spender",
          "type": "address",
          "internalType": "address"
        }
      ],
      "outputs": [],
      "stateMutability": "nonpayable"
    },
    {
      "type": "function",
      "name": "allowance",
      "inputs": [
        {
          "name": "owner",
          "type": "address",
          "internalType": "address"
        },
        {
          "name": "spender",
          "type": "address",
          "internalType": "address"
        }
      ],
      "outputs": [
        {
          "name": "",
          "type": "uint256",
          "internalType": "uint256"
        }
      ],
      "stateMutability": "view"
    },
    {
      "type": "function",
      "name": "approve",
      "inputs": [
        {
          "name": "spender",
          "type": "address",
          "internalType": "address"
        },
        {
          "name": "amount",
          "type": "uint256",
          "internalType": "uint256"
        }
      ],
      "outputs": [
        {
          "name": "",
          "type": "bool",
          "internalType": "bool"
        }
      ],
      "stateMutability": "nonpayable"
    },
    {
      "type": "function",
      "name": "balanceOf",
      "inputs": [
        {
          "name": "account",
          "type": "address",
          "internalType": "address"
        }
      ],
      "outputs": [
        {
          "name": "",
          "type": "uint256",
          "internalType": "uint256"
        }
      ],
      "stateMutability": "view"
    },
    {
      "type": "function",
      "name": "decimals",
      "inputs": [],
      "outputs": [
        {
          "name": "",
          "type": "uint8",
          "internalType": "uint8"
        }
      ],
      "stateMutability": "view"
    },
    {
      "type": "function",
      "name": "decreaseAllowance",
      "inputs": [
        {
          "name": "spender",
          "type": "address",
          "internalType": "address"
        },
        {
          "name": "subtractedValue",
          "type": "uint256",
          "internalType": "uint256"
        }
      ],
      "outputs": [
        {
          "name": "",
          "type": "bool",
          "internalType": "bool"
        }
      ],
      "stateMutability": "nonpayable"
    },
    {
      "type": "function",
      "name": "getRange",
      "inputs": [],
      "outputs": [
        {
          "name": "",
          "type": "uint256",
          "internalType": "uint256"
        }
      ],
      "stateMutability": "view"
    },
    {
      "type": "function",
      "name": "increaseAllowance",
      "inputs": [
        {
          "name": "spender",
          "type": "address",
          "internalType": "address"
        },
        {
          "name": "addedValue",
          "type": "uint256",
          "internalType": "uint256"
        }
      ],
      "outputs": [
        {
          "name": "",
          "type": "bool",
          "internalType": "bool"
        }
      ],
      "stateMutability": "nonpayable"
    },
    {
      "type": "function",
      "name": "name",
      "inputs": [],
      "outputs": [
        {
          "name": "",
          "type": "string",
          "internalType": "string"
        }
      ],
      "stateMutability": "view"
    },
    {
      "type": "function",
      "name": "owner",
      "inputs": [],
      "outputs": [
        {
          "name": "",
          "type": "address",
          "internalType": "address"
        }
      ],
      "stateMutability": "view"
    },
    {
      "type": "function",
      "name": "removeWhitelistedSpender",
      "inputs": [
        {
          "name": "spender",
          "type": "address",
          "internalType": "address"
        }
      ],
      "outputs": [],
      "stateMutability": "nonpayable"
    },
    {
      "type": "function",
      "name": "renounceOwnership",
      "inputs": [],
      "outputs": [],
      "stateMutability": "nonpayable"
    },
    {
      "type": "function",
      "name": "setRange",
      "inputs": [
        {
          "name": "newRange",
          "type": "uint256",
          "internalType": "uint256"
        }
      ],
      "outputs": [],
      "stateMutability": "nonpayable"
    },
    {
      "type": "function",
      "name": "symbol",
      "inputs": [],
      "outputs": [
        {
          "name": "",
          "type": "string",
          "internalType": "string"
        }
      ],
      "stateMutability": "view"
    },
    {
      "type": "function",
      "name": "totalSupply",
      "inputs": [],
      "outputs": [
        {
          "name": "",
          "type": "uint256",
          "internalType": "uint256"
        }
      ],
      "stateMutability": "view"
    },
    {
      "type": "function",
      "name": "transfer",
      "inputs": [
        {
          "name": "",
          "type": "address",
          "internalType": "address"
        },
        {
          "name": "",
          "type": "uint256",
          "internalType": "uint256"
        }
      ],
      "outputs": [
        {
          "name": "",
          "type": "bool",
          "internalType": "bool"
        }
      ],
      "stateMutability": "nonpayable"
    },
    {
      "type": "function",
      "name": "transferFrom",
      "inputs": [
        {
          "name": "",
          "type": "address",
          "internalType": "address"
        },
        {
          "name": "",
          "type": "address",
          "internalType": "address"
        },
        {
          "name": "",
          "type": "uint256",
          "internalType": "uint256"
        }
      ],
      "outputs": [
        {
          "name": "",
          "type": "bool",
          "internalType": "bool"
        }
      ],
      "stateMutability": "nonpayable"
    },
    {
      "type": "function",
      "name": "transferOwnership",
      "inputs": [
        {
          "name": "newOwner",
          "type": "address",
          "internalType": "address"
        }
      ],
      "outputs": [],
      "stateMutability": "nonpayable"
    },
    {
      "type": "event",
      "name": "Approval",
      "inputs": [
        {
          "name": "owner",
          "type": "address",
          "indexed": true,
          "internalType": "address"
        },
        {
          "name": "spender",
          "type": "address",
          "indexed": true,
          "internalType": "address"
        },
        {
          "name": "value",
          "type": "uint256",
          "indexed": false,
          "internalType": "uint256"
        }
      ],
      "anonymous": false
    },
    {
      "type": "event",
      "name": "OwnershipTransferred",
      "inputs": [
        {
          "name": "previousOwner",
          "type": "address",
          "indexed": true,
          "internalType": "address"
        },
        {
          "name": "newOwner",
          "type": "address",
          "indexed": true,
          "internalType": "address"
        }
      ],
      "anonymous": false
    },
    {
      "type": "event",
      "name": "Transfer",
      "inputs": [
        {
          "name": "from",
          "type": "address",
          "indexed": true,
          "internalType": "address"
        },
        {
          "name": "to",
          "type": "address",
          "indexed": true,
          "internalType": "address"
        },
        {
          "name": "value",
          "type": "uint256",
          "indexed": false,
          "internalType": "uint256"
        }
      ],
      "anonymous": false
    }
  ],
  "bytecode": {
    "object": "0x60806040523480156200001157600080fd5b5060405162000f6938038062000f69833981016040819052620000349162000290565b8282600362000044838262000393565b50600462000053828262000393565b505050620000706200006a6200008560201b60201c565b62000089565b6200007c3382620000db565b50505062000487565b3390565b600580546001600160a01b038381166001600160a01b0319831681179093556040519116919082907f8be0079c531659141344cd1fd0a4f28419497f9722a3daafe3b4186f6b6457e090600090a35050565b6001600160a01b038216620001365760405162461bcd60e51b815260206004820152601f60248201527f45524332303a206d696e7420746f20746865207a65726f206164647265737300604482015260640160405180910390fd5b80600260008282546200014a91906200045f565b90915550506001600160a01b03821660009081526020819052604081208054839290620001799084906200045f565b90915550506040518181526001600160a01b038316906000907fddf252ad1be2c89b69c2b068fc378daa952ba7f163c4a11628f55a4df523b3ef9060200160405180910390a35050565b505050565b634e487b7160e01b600052604160045260246000fd5b600082601f830112620001f057600080fd5b81516001600160401b03808211156200020d576200020d620001c8565b604051601f8301601f19908116603f01168101908282118183101715620002385762000238620001c8565b81604052838152602092508660208588010111156200025657600080fd5b600091505b838210156200027a57858201830151818301840152908201906200025b565b6000602085830101528094505050505092915050565b600080600060608486031215620002a657600080fd5b83516001600160401b0380821115620002be57600080fd5b620002cc87838801620001de565b94506020860151915080821115620002e357600080fd5b50620002f286828701620001de565b925050604084015190509250925092565b600181811c908216806200031857607f821691505b6020821081036200033957634e487b7160e01b600052602260045260246000fd5b50919050565b601f821115620001c3576000816000526020600020601f850160051c810160208610156200036a5750805b601f850160051c820191505b818110156200038b5782815560010162000376565b505050505050565b81516001600160401b03811115620003af57620003af620001c8565b620003c781620003c0845462000303565b846200033f565b602080601f831160018114620003ff5760008415620003e65750858301515b600019600386901b1c1916600185901b1785556200038b565b600085815260208120601f198616915b8281101562000430578886015182559484019460019091019084016200040f565b50858210156200044f5787850151600019600388901b60f8161c191681555b5050505050600190811b01905550565b808201808211156200048157634e487b7160e01b600052601160045260246000fd5b92915050565b610ad280620004976000396000f3fe608060405234801561001057600080fd5b50600436106101165760003560e01c8063715018a6116100a2578063a457c2d711610071578063a457c2d714610227578063a9059cbb1461023a578063b6b5ebb41461024d578063dd62ed3e14610260578063f2fde38b1461029957600080fd5b8063715018a6146101f45780638da5cb5b146101fc57806395d89b41146102175780639b85961f1461021f57600080fd5b8063313ce567116100e9578063313ce5671461018157806339509351146101905780634e3cb454146101a35780636a91991b146101b857806370a08231146101cb57600080fd5b806306fdde031461011b578063095ea7b31461013957806318160ddd1461015c57806323b872dd1461016e575b600080fd5b6101236102ac565b60405161013091906108b3565b60405180910390f35b61014c61014736600461091e565b61033e565b6040519015158152602001610130565b6002545b604051908152602001610130565b61014c61017c366004610948565b6103be565b60405160128152602001610130565b61014c61019e36600461091e565b610413565b6101b66101b1366004610984565b610458565b005b6101b66101c636600461099f565b6104a6565b6101606101d9366004610984565b6001600160a01b031660009081526020819052604090205490565b6101b6610525565b6005546040516001600160a01b039091168152602001610130565b61012361055b565b600754610160565b61014c61023536600461091e565b61056a565b61014c61024836600461091e565b610603565b6101b661025b366004610984565b61064e565b61016061026e3660046109b8565b6001600160a01b03918216600090815260016020908152604080832093909416825291909152205490565b6101b66102a7366004610984565b610699565b6060600380546102bb906109eb565b80601f01602080910402602001604051908101604052809291908181526020018280546102e7906109eb565b80156103345780601f1061030957610100808354040283529160200191610334565b820191906000526020600020905b81548152906001019060200180831161031757829003601f168201915b5050505050905090565b6001600160a01b03821660009081526006602052604081205460ff166103ab5760405162461bcd60e51b815260206004820152601a60248201527f5370656e646572206973206e6f742077686974656c697374656400000000000060448201526064015b60405180910390fd5b6103b58383610734565b90505b92915050565b60405162461bcd60e51b815260206004820152602160248201527f5472616e7366657246726f6d2066756e6374696f6e2069732064697361626c656044820152601960fa1b60648201526000906084016103a2565b3360008181526001602090815260408083206001600160a01b0387168452909152812054909161044f91859061044a908690610a25565b61073d565b50600192915050565b6005546001600160a01b031633146104825760405162461bcd60e51b81526004016103a290610a46565b6001600160a01b03166000908152600660205260409020805460ff19166001179055565b6005546001600160a01b031633146104d05760405162461bcd60e51b81526004016103a290610a46565b600081116105205760405162461bcd60e51b815260206004820152601f60248201527f52616e6765206d7573742062652067726561746572207468616e207a65726f0060448201526064016103a2565b600755565b6005546001600160a01b0316331461054f5760405162461bcd60e51b81526004016103a290610a46565b6105596000610861565b565b6060600480546102bb906109eb565b3360009081526001602090815260408083206001600160a01b0386168452909152812054828110156105ec5760405162461bcd60e51b815260206004820152602560248201527f45524332303a2064656372656173656420616c6c6f77616e63652062656c6f77604482015264207a65726f60d81b60648201526084016103a2565b6105f9338585840361073d565b5060019392505050565b60405162461bcd60e51b815260206004820152601d60248201527f5472616e736665722066756e6374696f6e2069732064697361626c656400000060448201526000906064016103a2565b6005546001600160a01b031633146106785760405162461bcd60e51b81526004016103a290610a46565b6001600160a01b03166000908152600660205260409020805460ff19169055565b6005546001600160a01b031633146106c35760405162461bcd60e51b81526004016103a290610a46565b6001600160a01b0381166107285760405162461bcd60e51b815260206004820152602660248201527f4f776e61626c653a206e6577206f776e657220697320746865207a65726f206160448201526564647265737360d01b60648201526084016103a2565b61073181610861565b50565b600061044f3384845b6001600160a01b03831661079f5760405162461bcd60e51b8152602060048201526024808201527f45524332303a20617070726f76652066726f6d20746865207a65726f206164646044820152637265737360e01b60648201526084016103a2565b6001600160a01b0382166108005760405162461bcd60e51b815260206004820152602260248201527f45524332303a20617070726f766520746f20746865207a65726f206164647265604482015261737360f01b60648201526084016103a2565b6001600160a01b0383811660008181526001602090815260408083209487168084529482529182902085905590518481527f8c5be1e5ebec7d5bd14f71427d1e84f3dd0314c0f7b2291e5b200ac8c7c3b925910160405180910390a3505050565b600580546001600160a01b038381166001600160a01b0319831681179093556040519116919082907f8be0079c531659141344cd1fd0a4f28419497f9722a3daafe3b4186f6b6457e090600090a35050565b60006020808352835180602085015260005b818110156108e1578581018301518582016040015282016108c5565b506000604082860101526040601f19601f8301168501019250505092915050565b80356001600160a01b038116811461091957600080fd5b919050565b6000806040838503121561093157600080fd5b61093a83610902565b946020939093013593505050565b60008060006060848603121561095d57600080fd5b61096684610902565b925061097460208501610902565b9150604084013590509250925092565b60006020828403121561099657600080fd5b6103b582610902565b6000602082840312156109b157600080fd5b5035919050565b600080604083850312156109cb57600080fd5b6109d483610902565b91506109e260208401610902565b90509250929050565b600181811c908216806109ff57607f821691505b602082108103610a1f57634e487b7160e01b600052602260045260246000fd5b50919050565b808201808211156103b857634e487b7160e01b600052601160045260246000fd5b6020808252818101527f4f776e61626c653a2063616c6c6572206973206e6f7420746865206f776e657260408201526060019056fea2646970667358221220bc883049d91cfbc39512845160e2f1f5b1c2b08bfeadca8c20c3d0aa0e6ee1e664736f6c637823302e382e32322d63692e323032332e392e32312b636f6d6d69742e33633536396462390054",
    "linkReferences": {}
  },
  "methodIdentifiers": {
    "addWhitelistedSpender(address)": "4e3cb454",
    "allowance(address,address)": "dd62ed3e",
    "approve(address,uint256)": "095ea7b3",
    "balanceOf(address)": "70a08231",
    "decimals()": "313ce567",
    "decreaseAllowance(address,uint256)": "a457c2d7",
    "getRange()": "9b85961f",
    "increaseAllowance(address,uint256)": "39509351",
    "name()": "06fdde03",
    "owner()": "8da5cb5b",
    "removeWhitelistedSpender(address)": "b6b5ebb4",
    "renounceOwnership()": "715018a6",
    "setRange(uint256)": "6a91991b",
    "symbol()": "95d89b41",
    "totalSupply()": "18160ddd",
    "transfer(address,uint256)": "a9059cbb",
    "transferFrom(address,address,uint256)": "23b872dd",
    "transferOwnership(address)": "f2fde38b"
  },
  "id": 31
}